:100000000C9480000C949F000C949F000C949F0013
:100010000C949F000C949F000C949F000C949F00E4
:100020000C949F000C949F000C949F000C949F00D4
:100030000C949F000C949F000C949F000C949F00C4
:100040000C949F000C949F000C949F000C949F00B4
:100050000C949F000C949F000C949F000C949F00A4
:100060000C949F000C949F000C949F000C949F0094
:100070000C949F000C949F000C949F000C949F0084
:100080000C949F000C949F000C949F000C949F0074
:100090000C949F000C949F000C949F000C949F0064
:1000A0000C949F000C949F000C949F000C949F0054
:1000B0000C949F000C949F000C949F000C949F0044
:1000C0000C949F000C949F000C949F000C949F0034
:1000D0000C949F000C949F000C949F000C949F0024
:1000E0000C949F000C949F000C949F000C949F0014
:1000F0000C949F000C949F000C949F000C949F0004
:1001000011241FBECFEFCDBFDFE7DEBF10E4A0E0BC
:10011000B0E4E0E7F6E000E00BBF02C007900D920C
:10012000AA30B107D9F720E4AAE0B0E401C01D92DB
:10013000AA30B207E1F70E9405010C9436030C9433
:100140000000E0E0F4E080818061808380818F7D29
:10015000808380818064808380818068808383E362
:10016000809340090895E0E4F4E020812D7F20830E
:10017000208121602083BC0180E090E00E943B024E
:1001800020E030E040E851E40E94C9029B01AC014C
:1001900060E074E284E79DE40E949A0120E030E090
:1001A00040E05FE30E942E010E940C02E0E2F8E0D2
:1001B000608771878681806C86830895E0E0F4E033
:1001C00084818F7784830895E0E0F4E084818068FF
:1001D00084830895CF93C82F0E94DE00C093440902
:1001E000809143098823E4F70E94E400CF910895A9
:1001F000CF93DF93EC0103C00E94EA00219688812F
:100200008111FACFDF91CF910895CF93DF93CDB7CE
:10021000DEB72A97CDBFDEBF80E895E20E94B3002B
:1002200086E0E0E0F0E4DE01119601900D928A95FF
:10023000E1F7FE01379684E0DF011D928A95E9F728
:100240000E94A1008FE097E20197F1F700C0000043
:10025000CE0101960E94F800F5CF5058BB27AA277F
:100260000E9445010C948F020E94810238F00E9486
:10027000880220F039F49F3F19F426F40C947E0292
:100280000EF4E095E7FB0C947802E92F0E94A0029F
:1002900058F3BA17620773078407950720F079F4BB
:1002A000A6F50C94C2020EF4E0950B2EBA2FA02DE9
:1002B0000B01B90190010C01CA01A0011124FF2713
:1002C000591B99F0593F50F4503E68F11A16F0400E
:1002D000A22F232F342F4427585FF3CF469537950D
:1002E0002795A795F0405395C9F77EF41F16BA0BD2
:1002F000620B730B840BBAF09150A1F0FF0FBB1F80
:10030000661F771F881FC2F70EC0BA0F621F731FC8
:10031000841F48F4879577956795B795F7959E3F25
:1003200008F0B0CF9395880F08F09927EE0F9795B6
:10033000879508950E94AE010C948F020E94880256
:1003400058F00E94810240F029F45F3F29F00C949C
:10035000780251110C94C3020C947E020E94A002F8
:1003600068F39923B1F3552391F3951B550BBB27E4
:10037000AA2762177307840738F09F5F5F4F220F29
:10038000331F441FAA1FA9F335D00E2E3AF0E0E820
:1003900032D091505040E695001CCAF72BD0FE2F6A
:1003A00029D0660F771F881FBB1F261737074807FE
:1003B000AB07B0E809F0BB0B802DBF01FF279358B6
:1003C0005F4F3AF09E3F510578F00C9478020C9400
:1003D000C3025F3FE4F3983ED4F386957795679523
:1003E000B795F7959F5FC9F7880F911D96958795EB
:1003F00097F90895E1E0660F771F881FBB1F62170A
:1004000073078407BA0720F0621B730B840BBA0BC7
:10041000EE1F88F7E09508950E94A80288F09F5784
:1004200098F0B92F9927B751B0F0E1F0660F771F18
:10043000881F991F1AF0BA95C9F714C0B13091F00E
:100440000E94C202B1E008950C94C202672F782F77
:100450008827B85F39F0B93FCCF3869577956795D3
:10046000B395D9F73EF490958095709561957F4F3F
:100470008F4F9F4F0895E89409C097FB3EF49095E5
:100480008095709561957F4F8F4F9F4F9923A9F06D
:10049000F92F96E9BB279395F695879577956795FC
:1004A000B795F111F8CFFAF4BB0F11F460FF1BC040
:1004B0006F5F7F4F8F4F9F4F16C0882311F096E9D3
:1004C00011C0772321F09EE8872F762F05C0662381
:1004D00071F096E8862F70E060E02AF09A95660F3A
:1004E000771F881FDAF7880F9695879597F90895F3
:1004F00097F99F6780E870E060E008959FEF80ECD7
:10050000089500240A941616170618060906089579
:1005100000240A9412161306140605060895092EDF
:100520000394000C11F4882352F0BB0F40F4BF2B4E
:1005300011F460FF04C06F5F7F4F8F4F9F4F08958E
:1005400057FD9058440F551F59F05F3F71F0479584
:10055000880F97FB991F61F09F3F79F08795089569
:10056000121613061406551FF2CF4695F1DF08C088
:10057000161617061806991FF1CF869571056105A5
:1005800008940895E894BB2766277727CB0197F94D
:1005900008950E94DC020C948F020E94810238F0C0
:1005A0000E94880220F0952311F00C9478020C949C
:1005B0007E0211240C94C3020E94A00270F3959F46
:1005C000C1F3950F50E0551F629FF001729FBB274A
:1005D000F00DB11D639FAA27F00DB11DAA1F649FE6
:1005E0006627B00DA11D661F829F2227B00DA11D99
:1005F000621F739FB00DA11D621F839FA00D611D1F
:10060000221F749F3327A00D611D231F849F600D3F
:10061000211D822F762F6A2F11249F5750409AF068
:10062000F1F088234AF0EE0FFF1FBB1F661F771FF4
:10063000881F91505040A9F79E3F510580F00C94BF
:1006400078020C94C3025F3FE4F3983ED4F386959E
:1006500077956795B795F795E7959F5FC1F7FE2B5F
:10066000880F911D9695879597F90895F894FFCF77
:0A067000616776610A0000000000D7
:00000001FF
