:100000000C9480000C9492000C9492000C9492003A
:100010000C9492000C9492000C9492000C94920018
:100020000C9492000C9492000C9492000C94920008
:100030000C9492000C9492000C9492000C949200F8
:100040000C9492000C9492000C94E1000C94920099
:100050000C9492000C9492000C9492000C949200D8
:100060000C9492000C9492000C9492000C949200C8
:100070000C9492000C9492000C9492000C949200B8
:100080000C9492000C9492000C9492000C949200A8
:100090000C9492000C9492000C9492000C94920098
:1000A0000C9492000C9492000C9492000C94920088
:1000B0000C9492000C9492000C9492000C94920078
:1000C0000C9492000C9492000C9492000C94920068
:1000D0000C9492000C9492000C9492000C94920058
:1000E0000C9492000C9492000C9492000C94920048
:1000F0000C9492000C9492000C9492000C94920038
:1001000011241FBECFEFCDBFDFE7DEBF20E4A0E0AC
:10011000B0E401C01D92A130B207E1F70E941001C6
:100120000C9427030C940000E0E0F4E080818F7EC3
:10013000808380818062808380818F7B80838081C7
:100140008F778083E0E4F9E081818068818381E0BA
:10015000808380818F7D808380E882830895E0E4BE
:10016000F4E020812D7F2083208121602083BC0149
:1001700080E090E00E942C0220E030E040E851E472
:100180000E94BA029B01AC0160E074E284E79DE446
:100190000E948B0120E030E040E05FE30E941F01FD
:1001A0000E94FD01E0E2F8E0608771878681806C43
:1001B000868308959091240895FFFCCF80932208B0
:1001C00008951F920F920FB60F9211240BB60F9243
:1001D0002F933F934F935F936F937F938F939F934F
:1001E000AF93BF93EF93FF93E0E4F9E080E883835C
:1001F0008481809300400E94DA00FF91EF91BF91CB
:10020000AF919F918F917F916F915F914F913F91AE
:100210002F910F900BBE0F900FBE0F901F9018954F
:1002200080E895E20E94AF000E94940078948FE0ED
:1002300097E20197F1F700C00000F9CF5058BB27B3
:10024000AA270E9436010C9480020E94720238F0A4
:100250000E94790220F039F49F3F19F426F40C949F
:100260006F020EF4E095E7FB0C946902E92F0E94FF
:10027000910258F3BA17620773078407950720F0B5
:1002800079F4A6F50C94B3020EF4E0950B2EBA2F78
:10029000A02D0B01B90190010C01CA01A00111248C
:1002A000FF27591B99F0593F50F4503E68F11A1638
:1002B000F040A22F232F342F4427585FF3CF4695C9
:1002C00037952795A795F0405395C9F77EF41F16EB
:1002D000BA0B620B730B840BBAF09150A1F0FF0FB5
:1002E000BB1F661F771F881FC2F70EC0BA0F621FA1
:1002F000731F841F48F4879577956795B795F79591
:100300009E3F08F0B0CF9395880F08F09927EE0F25
:100310009795879508950E949F010C9480020E94F2
:10032000790258F00E94720240F029F45F3F29F0F0
:100330000C94690251110C94B4020C946F020E9447
:10034000910268F39923B1F3552391F3951B550B53
:10035000BB27AA2762177307840738F09F5F5F4F98
:10036000220F331F441FAA1FA9F335D00E2E3AF0D7
:10037000E0E832D091505040E695001CCAF72BD0EF
:10038000FE2F29D0660F771F881FBB1F2617370740
:100390004807AB07B0E809F0BB0B802DBF01FF2772
:1003A00093585F4F3AF09E3F510578F00C946902E4
:1003B0000C94B4025F3FE4F3983ED4F386957795AE
:1003C0006795B795F7959F5FC9F7880F911D96952B
:1003D000879597F90895E1E0660F771F881FBB1F87
:1003E000621773078407BA0720F0621B730B840B34
:1003F000BA0BEE1F88F7E09508950E94990288F0E5
:100400009F5798F0B92F9927B751B0F0E1F0660FD8
:10041000771F881F991F1AF0BA95C9F714C0B13019
:1004200091F00E94B302B1E008950C94B302672FDB
:10043000782F8827B85F39F0B93FCCF38695779548
:100440006795B395D9F73EF4909580957095619531
:100450007F4F8F4F9F4F0895E89409C097FB3EF45C
:1004600090958095709561957F4F8F4F9F4F992301
:10047000A9F0F92F96E9BB279395F695879577957F
:100480006795B795F111F8CFFAF4BB0F11F460FF3F
:100490001BC06F5F7F4F8F4F9F4F16C0882311F097
:1004A00096E911C0772321F09EE8872F762F05C0AB
:1004B000662371F096E8862F70E060E02AF09A9546
:1004C000660F771F881FDAF7880F9695879597F93B
:1004D000089597F99F6780E870E060E008959FEFC6
:1004E00080EC089500240A941616170618060906CB
:1004F000089500240A94121613061406050608959A
:10050000092E0394000C11F4882352F0BB0F40F421
:10051000BF2B11F460FF04C06F5F7F4F8F4F9F4F61
:10052000089557FD9058440F551F59F05F3F71F0E3
:100530004795880F97FB991F61F09F3F79F087954A
:100540000895121613061406551FF2CF4695F1DFD3
:1005500008C0161617061806991FF1CF8695710563
:10056000610508940895E894BB2766277727CB0197
:1005700097F908950E94CD020C9480020E947202A5
:1005800038F00E94790220F0952311F00C94690252
:100590000C946F0211240C94B4020E94910270F327
:1005A000959FC1F3950F50E0551F629FF001729F18
:1005B000BB27F00DB11D639FAA27F00DB11DAA1F27
:1005C000649F6627B00DA11D661F829F2227B00D74
:1005D000A11D621F739FB00DA11D621F839FA00DFF
:1005E000611D221F749F3327A00D611D231F849F4F
:1005F000600D211D822F762F6A2F11249F575040A6
:100600009AF0F1F088234AF0EE0FFF1FBB1F661F20
:10061000771F881F91505040A9F79E3F510580F0E9
:100620000C9469020C94B4025F3FE4F3983ED4F357
:10063000869577956795B795F795E7959F5FC1F78D
:10064000FE2B880F911D9695879597F90895F8943C
:02065000FFCFDA
:00000001FF
